:020000040800F2
:1000000000000110F92C060829CA0508BD370408AC
:10001000992D0608992D0608992D06080000000064
:1000200000000000000000000000000099E9050841
:1000300095E905080000000091E90508D139050897
:10004000992D0608992D0608992D0608992D060860
:10005000992D0608992D060845630508556305087E
:10006000992D0608516305084D630508D107060858
:10007000C1070608B1070608A10706088D0706088C
:100080007907060865070608992D0608992D0608C0
:10009000992D0608992D0608992D0608496305082B
:1000A000F5080608D1080608AD080608190906086B
:1000B0009D0806088908060875080608992D06088F
:1000C000992D0608992D0608992D0608992D0608E0
:1000D000992D060801100608F50F0608E90F060815
:1000E00041630508992D06085DFD050829080608E5
:1000F00005080608E10706084D0806085107060826
:10010000992D0608992D060861080608992D0608FC
:10011000DD0F0608D10F0608992D0608992D06084F
:100120003D070608290706081507060801070608FF
:10013000ED060608992D0608992D0608992D060842
:10014000992D0608992D0608992D060839F70508F6
:10015000D9060608C5060608B1060608992D060840
:10016000992D0608992D0608992D0608992D06083F
:10017000992D0608992D0608992D0608992D06082F
:08018000992D0608992D0608CF
:1001900009284FF0010307D903EB83035B00B0FB91
:1001A000F3F2092AF8D883B3F0B4DFF864C000256D
:1001B0000EE00A2A1E460F462346B4BF30245724B9
:1001C0002244092E01F1010105F101053A700FD910
:1001D000ACFB0324E408B0FBF3F203FB1200002D98
:1001E000E7D1002AE5DC092B06D8303201F8012BD3
:1001F0000023F0BC0B707047ACFB0436B0FBF4F28C
:10020000234604FB1200F408EBE700230B70704751
:10021000CDCCCCCCF0B40D6800240CE0BCF1050FC3
:1002200018D8A0F137030A2B14D104EB840415F875
:10023000010B03EB4404A0F13003DEB2092EA0F160
:100240006107A0F1410CF0D9052FE7D8A0F15703C1
:100250000A2BEAD00D601460F0BC704700B583B083
:100260000268074B8188CDF8012032221B68ADF867
:1002700005108DF800206846984703B05DF804FB30
:10028000601D0020204B2DE9F0415D68064600F11D
:100290000708002406E01B68394698473C44464559
:1002A000A4B215D016F8017BA7F17D03012B2846D7
:1002B0002B684FF07D01EED81B6898472B6887F0BC
:1002C00020011B6828469847E8E7E3B203EB1424B3
:1002D000FF2CFAD8C4F1FF04E4B2A4F17D03012B92
:1002E0002B6805D9214628461B68BDE8F041184710
:1002F00028461B687D2198472B6884F020012846FA
:100300001B68BDE8F0411847601D00200A4AD36908
:1003100030B41C6855695D6019810025611C196045
:100320009D812070D36951691A685A604FF6F67240
:1003300030BC19609A817047601D0020084B242250
:1003400003F12101016010B483F8202002683233E8
:10035000541C5421C0E9004311705DF8044B7047F0
:10036000601D0020F8B5CE1E0F4606440239421E1D
:1003700004464FF6FF7312F8015F5B1BB2429BB25B
:10038000F9D1C5194354064E1B0A05F8013C14F86F
:10039000011B706B53F098FCA542F8D1F8B2F8BD80
:1003A000601D002010B582B00B4660F05F001A0E91
:1003B00008211C14ADF802308DF8010000236846B6
:1003C0008DF804408DF805208DF80010ADF806304A
:1003D000FFF7C8FF02B010BD30B5062283B060F051
:1003E0005F030D460024114668468DF80130ADF8D4
:1003F00002508DF80020ADF80440FFF7B3FF03B0C2
:1004000030BD00BF284A116821F0404323F07F032C
:10041000002B0CBF012002204B07536848BF04305B
:10042000D90744BF0A3080B29A0744BF143080B263
:10043000D90544BF283080B25A0744BF643080B227
:10044000190744BFC83080B29A0644BF00F5C8708F
:1004500080B2D90644BF00F57A7080B2DA040FD5B5
:1004600000F5FA5080B2990403D500F51C50103005
:1004700080B29A050AD5A0F5C740403880B27047CF
:1004800019050AD500F5FA6080B2ECE75B0503D5E3
:1004900000F59C40203080B270475A0644BF00F5FA
:1004A0007A6080B2DFE700BF00000010022805D0AC
:1004B000A0F10100B0FA80F040097047054B93F8B5
:1004C000403023B9044B1868C0F3800070471020F7
:1004D0003AF0FABC601D00200000001030B4054660
:1004E0000C482C6800F123039C424FF0000205D910
:1004F00013F8011BA34282EA0102F9D1631C2B60AD
:1005000022702A6804496A60806F2960521A30BCE0
:1005100053F0B8BB601D0020801D0020014B93F8F4
:100520007C007047601D0020F0B4434D434BC5F87C
:100530008030C823013885F8843005F1850205F143
:10054000BF014D2428E0DCB25BB2002B34DB63003A
:10055000DCB25BB2002B36DB6400E3B264B2002C89
:1005600038DB5C00E3B264B2002C3ADB5C00E3B23F
:1005700064B2002C3CDB5C00E3B264B2002C3EDBD6
:100580005C00E3B264B2002C4FEA4303B8BF83F0CF
:10059000D5038A42DCB238D010F8013F02F8013BA3
:1005A000634013F0800F4FEA4303CCD083F0D504AF
:1005B00063B2002BE4B2CADA640084F0D50463B2FB
:1005C000002BE4B2C8DA630083F0D5035CB2002CE0
:1005D000DBB2C6DA5B0083F0D5035CB2002CDBB281
:1005E000C4DA5B0083F0D5035CB2002CDBB2C2DA64
:1005F0005B0083F0D5035CB2002CDBB2C0DA5B0099
:1006000083F0D5035CB2DBB2BDE70D4E85F8BF4089
:10061000A6F144070FCF0FC60FCF0FC60FCF0FC6DF
:1006200097E80F00402785F8C04086E80F0085F85E
:100630000471F0BC704700BF601D0020C83E7BEA1B
:10064000241E002070B5214D95F80531EA181C468E
:1006500092F808218AB11E4E09225C1CA6FB0413E5
:100660005B0803EBC303E31AE918DCB291F8081145
:1006700009B1013AF1D185F8054102681549561CC6
:1006800006600C2616700268561C0660002616705E
:100690000268561C066003EB430603EB86031470E6
:1006A00019440D2258F0A6FE95F80511084B4A1C76
:1006B000A3FB02035B08294403EBC3030120D31A05
:1006C00081F8080185F8053170BD00BF601D00206C
:1006D000398EE338741E002038B504460D460A46AC
:1006E0000068FF2168F093FA21682944216038BD31
:1006F000026810B57F21541C046011700268002448
:10070000511C01600E211470FFF7E6FF012010BD9F
:1007100030B53E4C94F88931012B85B001D005B03D
:1007200030BD94F88A01022826D0A0F10100B0FA69
:1007300080F0400948B36368002BF0D1D4F88C21D5
:10074000002AECD094F8485094F8411092F9040033
:10075000002D14BF08220022002908BF42F0010228
:1007600003254FF46141CDE9015200911A46202141
:1007700030F01EF86060D2E794F840305BBB244B49
:100780001868C0F380000028D5D16268002AC6D05E
:10079000D4F89431934223D0D4F8A0319A4228D08F
:1007A000D4F8AC319A4226D0D4F8B8319A4216D057
:1007B000D4F8C4319A4220D0D4F8D0319A421ED015
:1007C000D4F8DC319A421CD0D4F8E8319A421AD0DD
:1007D00000236360A3E710203AF076FBAAE703202A
:1007E00000EB4000002104EB8003D162C3E96511F6
:1007F000EEE70120F4E70220F2E70420F0E705200D
:10080000EEE70620ECE70720EAE700BF601D0020C6
:100810000000001070B51D4E1D4D96F8F8016322C2
:10082000002159F019FEB6F81C3204461948333B32
:1008300080FB0320DB17C3EB20100922002159F0B5
:100840000BFEAA68C0F10903642000FB0344A4B2B4
:10085000910744BF04F57A74A4B22B68D20744BF51
:1008600004F5FA64A4B25B0701D4204670BD1520DC
:100870003AF02AFB0028F8D06B6813F4016F04BF2C
:1008800004F57A64A4B2204670BD00BF601D00204C
:10089000000000101F85EB512DE9F047724C82B02B
:1008A000E269D2E900239B1A002B00AF40F39B8042
:1008B000002384F838326D4B236103F18002A3F1E9
:1008C0001406C4E98A33C4E90526C4E9EF2203F516
:1008D000C075E5610025421800F10109C4E90292E2
:1008E00003785909012940F0858003F00F0813F0BF
:1008F000100310D1002D00F0968094F8CD13013133
:1009000001F00F0141457ED01846083784F838328F
:10091000BD46BDE8F087831CA360C31C4278D4F8B1
:1009200010A0A3608078C6F800A00AEB02037360F1
:10093000424084F8CC23D4E90292002584F838128E
:100940003081B581A2EB0902D5B2A3EB0A0A5FFAA6
:100950008AFAEB1D03F4FC73AA45ADEB030D67D2D5
:1009600052464946684667F01FFF09EB0A035246A4
:1009700030466946A36058F03DFD2369306894F81D
:10098000CC238342C6E9003009D00133336013F829
:10099000011C984282EA0102F7D184F8CC23A368B3
:1009A0001B78934232D12369E169C6E9003063695B
:1009B0004B600023A0690B818B813A1D84F838328B
:1009C0007B603AF053FE013046D07B680BB10020CB
:1009D0009847E3696269196801200837C3E9002173
:1009E000BD46BDE8F08794F83852002D3FF463AF60
:1009F000A66970E700210846FFF788FC0120083748
:100A0000BD46BDE8F087D6E900A39BE70023B6F911
:100A1000081084F838320120FFF778FC01200837ED
:100A2000BD46BDE8F08728460837BD46BDE8F087DB
:100A30002A464946684667F0B7FE09EB050330468B
:100A40002A466946A36058F0D5FC0020083784F890
:100A5000CD83BD46BDE8F087E26913680221581CCA
:100A600010601970B1E700BF601D00209C1F0020BE
:100A70002DE9F04D2D4D2E4EB5F9CE13B5F8D4C35A
:100A8000B5F8D08386FB0146CC17C4EBA604A4B20C
:100A9000A44582B016461F4603D1B5F8D633434568
:100AA00033D003680190591C342201601A70036826
:100AB0000022591C01601A70214658F0CBFC0198A5
:100AC000414658F0C7FC019847F6FF7158F0C2FC48
:100AD000019847F6FF7158F0BDFC019847F6FF7189
:100AE00058F0B8FC019847F6FF7158F0B3FC019834
:100AF0000221FFF7F1FD0120C5E9F667A5F8D4430F
:100B0000A5F8D68302B0BDE8F08DD5E9F632B6EB94
:100B1000030A67EB020B0023064A5B4508BF5245F8
:100B2000BFD3002002B0BDE8F08D00BF601D0020E3
:100B30006766666680841E00604AD3682DE9F041CE
:100B4000064613F0800000F09A80906810F00200D2
:100B500000F095805A4F97F8F811052940F29380DC
:100B6000632900F28E800024DFF860C189B2254637
:100B7000ACFB0132D20802EB8203A1EB4303E0B2EB
:100B80008E469BB280008340BEF1090F91B245EAC8
:100B9000030504F10104EBD8EDB2D7F80432494A59
:100BA00082FB0312D917C1EB623189B2002900F030
:100BB00082804FF0000CDFF814E16446AEFB013296
:100BC000D20802EB8203A1EB43035FFA8CF0884664
:100BD0009BB280008340B8F1090F91B244EA03044C
:100BE0000CF1010CEAD8E4B2B7F8143236494FF4EC
:100BF000F36213FB02F381FB0312D917C1EBA211BD
:100C000089B242F20F73994240D8C9B10027DFF888
:100C1000BCE0BC46AEFB0132D20802EB8203A1EB82
:100C20004303F8B288469BB280008340B8F1090FB5
:100C300091B24CEA030C07F10107EBD81FFA8CF1D3
:100C400033681722581C30601A7033680022581C11
:100C500030601A70304658F0FDFB4FF0FF313046DF
:100C600058F0E0FB33685A1C32601D7033685A1C20
:100C7000326030461C700621FFF72EFD0120BDE8D2
:100C8000F081992589E70020BDE8F0810020DFF898
:100C90003CC00146ACFB0372D20802EB8207A3EB17
:100CA00047039BB283400430102841EA030193B20A
:100CB000F0D189B2C4E70C4696E700BF00000010EF
:100CC000601D002089B5F814D34D6210CDCCCCCC7A
:100CD0002DE9F04FC14AD368804613F0800083B0FD
:100CE00000F06F81906810F0020000F06A81DFF878
:100CF0000CB39BF8F831052B40F26881DBF8FC312E
:100D0000B74D0093002BB8BF5B42A5FB0342B5482B
:100D1000B549920D00FB0233C3EB03139B0085FB27
:100D2000034502EB8202DC1702EB8202C4EBA554FE
:100D300000FB043304EB8204A4B281FB0321DB1724
:100D4000C3EBA111BCB10025A84F2E46A7FB04326E
:100D5000D20802EB8203A4EB4303E8B2A4469BB2A1
:100D600080008340BCF1090F94B246EA030605F106
:100D70000105EBD8340489B2B9B100259B4F2E464A
:100D8000A7FB0132D20802EB8203A1EB4303E8B2D6
:100D90008C469BB280008340BCF1090F91B246EAB9
:100DA000030605F10105EBD83443DBF800E28C4D76
:100DB0008C4E8D498EEAEE70A0EBEE70A5FB0032F2
:100DC000920D06FB0200C0EB0010830085FB035070
:100DD00002EB8202DD1702EB8202C5EBA05506FB97
:100DE000053305EB8205ADB281FB0321DB17C3EBB5
:100DF000A111C5B10020DFF8F4C10646ACFB0532F5
:100E0000D20802EB8203A5EB4303C7B2A9469BB20B
:100E1000BF00BB40B9F1090F95B246EA030600F1E5
:100E20000100EBD8350489B2C1B10020DFF8BCC1A4
:100E30000646ACFB0132D20802EB8203A1EB43036E
:100E4000C7B289469BB2BF00BB40B9F1090F91B24E
:100E500046EA030600F10100EBD83543DBF8043223
:100E6000624A0193002B1846B8BF5842A2FB0030DB
:100E70005F4E6049030AA6FB0363DB0901FB03F134
:100E8000C1EBD00189B2B9B1002691463746A9FB22
:100E90000132D20802EB8203A1EB4303F0B28C468D
:100EA0009BB280008340BCF1090F91B247EA03076F
:100EB00006F10106EBD8B9B2BBF81672DFB1002615
:100EC000DFF828A1B446AAFB0732D20802EB82035E
:100ED000A7EB43035FFA86F938469BB24FEA8909CC
:100EE00003FA09F3092897B24CEA030C06F101064C
:100EF000E9D81FFA8CF7BBF81C323C4AA2FB030668
:100F0000F608632E28BF6326092B63D90020934679
:100F10008146ABFB0632D20802EB8203A6EB430309
:100F20005FFA80FAB4469BB24FEA8A0A03FA0AF3E0
:100F3000BCF1090F96B249EA030900F10100E8D8B3
:100F40005FFA89F9009B019A002BCCBF3923382323
:100F50001616BEF1000F26F07F0635DD264A334314
:100F6000964543F00206C8BF43F00606D8F80030A5
:100F70001622581CC8F800001A70D8F80030002259
:100F8000581CC8F800001A70404658F063FA214611
:100F9000404658F047FA2946404658F043FA404642
:100FA000394658F057FAD8F800305A1CC8F80020D3
:100FB00083F80090D8F800305A1CC8F800200120AF
:100FC0001E7003B0BDE8F08F1E43CFE7002003B0D2
:100FD000BDE8F08F4FF00009B4E700BF000000103B
:100FE0006BCA5F6B806967FFD34D6210CDCCCCCCF0
:100FF000C55A7C0AA0860100FFC99A3B601D0020EB
:1010000003687E22591C10B501601A700368002223
:10101000591C01601A704FF6FF71044658F0F4F93C
:101020000D4B93F8463083B129F04EFA0146204625
:1010300058F0EAF9204647F6FF7158F0E5F92046E6
:101040000821FFF749FB012010BD29F053FA0146A2
:10105000204658F0D9F9EDE7601D00204309012230
:1010600000F01F00023B02FA00F0032B07D8DFE874
:1010700003F0020C11070A4B5A6C10435864704776
:10108000074B5A6B104358637047054B1A6C10435B
:1010900018647047024B1A6B10431863704700BF07
:1010A000003802400B68144A30B40568CC682A4006
:1010B0002343D1E9054513432343D1E907242B43B7
:1010C00013434A6A4D6B234313438C6BCA6A2B4309
:1010D000234343F40033036044690B6B0D6924F030
:1010E000070413432343D1E901424361456084600F
:1010F00030BCC260704700BF3F801CF030B4036852
:101100001A6853797BB159B2002920DB174C0120B2
:10111000651803F01F03490900FA03F3302085F82E
:10112000000344F8213093797BB15AB2002A15DBD1
:101130000E480121841803F01F03520901FA03F33A
:10114000302184F8001340F8223030BC7047084941
:1011500003F00F03194430230B76E4E7044A03F04D
:101160000F031A443023137630BC704700E100E0CF
:10117000FCEC00E010B40C4C13212246002303E0E9
:1011800001330B2B0BD01179884202F11402F7D1F5
:1011900003EB830304EB83005DF8044B70470020EE
:1011A0005DF8044B704700BF448D060870B50B46D0
:1011B000ADF5815D014614460DF581501A460023B8
:1011C000CDE9010304AD6846FD260393ADF8086040
:1011D000009558F00FF9009B0193204669460222C2
:1011E00000952EF06DFB0DF5815D70BD2DE9F0478A
:1011F000041E0D4612DB092C26DC824A0B4682486F
:10120000A0FB0410C00800EB8000A4EB400000210C
:10121000125C1A7059702846BDE8F08764422D238D
:10122000092C01F8013B24D8764A774BA3FB040331
:10123000DB0803EB8303A4EB43030020D35C48707B
:101240000B702846BDE8F0876F4B632CA3FB042688
:101250004FEAD60621DC6B4A0B466B49A1FB06011F
:10126000C90801EB8101A6EB4101515C03F8011BA8
:10127000C5E7654A632CA2FB04364FEAD60637D889
:10128000604A614BA3FB0603DB0803EB8303A6EB79
:101290004303D35C01F8013BC7E7A3FB0627B4F582
:1012A0007A7F4FEAD7070DD2564A0B465649A1FB23
:1012B0000701C90801EB8101A7EB4101515C03F86B
:1012C000011BCAE7A3FB072842F20F7294424FEAC0
:1012D000D80836D84B4A0B464B49A1FB0801C90830
:1012E00001EB8101A8EB4101515C03F8011BDDE733
:1012F000A2FB0637B4F57A7F4FEAD7070CD2414AF2
:10130000414BA3FB0703DB0803EB8303A7EB43037A
:10131000D35C01F8013BB4E7A2FB073842F20F733C
:101320009C424FEAD80821D8364A374BA3FB080322
:10133000DB0803EB8303A8EB4303D35C01F8013B19
:10134000DEE7324AA3FB080994424FEAD90921D8C3
:101350002C4A0B462C49A1FB0901C90801EB81016C
:10136000A9EB4101515C03F8011BB5E7274BA2FB38
:1013700008099C424FEAD90921D8224A224BA3FBF3
:101380000903DB0803EB8303A9EB4303D35C01F8F8
:10139000013BCAE71E4AA3FB090394424FEAD30A62
:1013A00021D80B461849174AA1FB0A01C90801EBCD
:1013B0008101AAEB4101515C03F8011BCAE7144B00
:1013C000A2FB09029C424FEAD20A13D80E4B0D4AE7
:1013D000A3FB0A03DB0803EB8303AAEB4303D35C01
:1013E00001F8013BCAE70A22BAFBF2F057F05CFDB4
:1013F0000346D7E70A22BAFBF2F057F055FD014643
:10140000E4E700BFE8200708CDCCCCCC9F860100E4
:101410003F420F002DE9F04788B0541C0394147824
:10142000002C00F040810025074688461E46A9464C
:101430000BE0791C02D021463846C047039A01359B
:10144000531C03931478002C58D0252CF1D1931CF5
:10145000CDE9033950782D2800F0C8804FF0000AFC
:10146000302800F0AB80A0F13003DBB2092B4FF045
:10147000000440F2AF806C284ED0782838D8572826
:1014800040D9A0F15803202B32D8DFE813F0F40044
:1014900031003100310031003100310031003100C4
:1014A00031003100DA0000013100C10031003100AB
:1014B00031003100310031003100E30031003100F2
:1014C00031003100BB003100210031003100F40057
:1014D00056F8040B05A9FEF75BFE05ABCDE900430A
:1014E000049B42464FF0FF31384658F06DF80544F2
:1014F000039A531C03931478002CA6D1284608B0F5
:10150000BDE8F0870028F9D02528F1D17B1C95D0C3
:1015100025213846C04791E7039B5A1C039219784E
:1015200078298DD8572967D9A1F15803202B87D85E
:1015300001A050F823F000BF5F1600084114000816
:101540004114000841140008411400084114000827
:101550004114000841140008411400084114000817
:1015600041140008431600089B16000841140008A7
:101570001116000841140008411400084114000825
:1015800041140008411400084114000841140008E7
:1015900057160008411400084114000841140008BF
:1015A000411400080516000841140008D114000871
:1015B00041140008411400085F160008039B5A1CE0
:1015C00003921878A0F13003DBB2092B4FF001042D
:1015D0003FF651AF04AA03A9FEF71CFEBAF1000FB3
:1015E0003FF449AF049B5B42049344E7D31C03934D
:1015F00090784FF0010A33E700293FF47FAF2529A7
:1016000084D01DE756F8042B049BCDE9009268E7CF
:10161000073626F00706F6E8020161F02FF800EE23
:10162000100A05A857F0D6FB05ABCDE900434246AA
:10163000049B4FF0FF31384657F0C6FF039A05442C
:10164000FEE67A1C3FF4FAAE56F8041B3846C9B2DF
:10165000C047F3E6039A56F8043B1D60F0E6A1F19B
:101660005802B2FA82F256F8040B520905AB102167
:1016700057F076FC31E7A0F15802B2FA82F256F840
:10168000040B520905AB102157F06AFC25E756F808
:10169000040B05A957F020FC1FE756F8040B05A919
:1016A00057F01AFC19E7254628E700BF2DE9F04F4F
:1016B000D0F804C0DCF81030804665480E4691B082
:1016C00017464FEA133E190A00256A01013583586F
:1016D0008EEA133481EA132304F0030403F00F03AA
:1016E0001C4307D0102DF0D10020C8F80C0011B019
:1016F000BDE8F08F00EB020ADCF800309AF81C20FD
:10170000C8F80CA01AB1204611B0BDE8F08FB3F8AC
:101710004420504D6FEA42426FEA524292B2A3F81F
:1017200044201A8892B242F080021A809CF8051078
:101730001A8C29444FF0010991F8DC1009FA01F1E3
:1017400089B292B222EA01021A841A8C92B211432F
:1017500019841A8892B242EA09021A8050465EF051
:101760009BFFD8F80CB00A23AAF81C3058465EF04C
:1017700093FF9BF91430384ACBF81880002BCBF834
:101780000C205DDB354903F01F02C8185B094FF0E0
:10179000300C09FA02F280F800C341F82320D8F88F
:1017A0000C3098685EF0E2FED8F80C309868036858
:1017B00023F0010303605EF0D9FE0023CDE90C3372
:1017C000CDE90E33D8F8042006930A935379032BFE
:1017D00005D8DFE803F0322F2C0214684034127C65
:1017E000D8F80C30029405EB82059868D5F8E03003
:1017F00001934FF4806140224FF4003307914FF47E
:1018000080454FF4805401A904920B93CDE908451B
:1018100005970396FFF746FCD8F80C309A681368D2
:10182000012043F01003136011B0BDE8F08F14687D
:101830003C34D4E714683834D1E714683434CEE744
:10184000074A03F00F031A4430231376A7E700BFBB
:1018500000000020448D060869FE050800E100E054
:10186000FCEC00E0F8B5B44CB44DB54BC4F8E4530F
:101870000225B44AB44FB54EB54984F8E8534FF049
:10188000A045C4F8EC53C4F8383405F51465A3F545
:10189000DC63C4F8F023C4F8F87302F550726037C3
:1018A000C4F83464C4F8FC136036A1F5A461C4F82C
:1018B0000054C4F8AC34A5F5886503F5B073C4F8DA
:1018C0003C24C4F80474A2F5C462A7F58467C4F884
:1018D0004064C4F8F413A6F5C06601F5C071C4F8FD
:1018E0007054C4F88434C0359A4B9B48C4F87424AF
:1018F000C4F87874C03207F52C67C4F87C64C4F867
:10190000801406F5D55601F52A51C4F888544FF0D5
:101910005025C4F8E003C4F88C2400208F4AC4F892
:10192000B074C4F8B464C4F8B81406F5C046012114
:10193000C4F8BC34C4F8C054A3F5485307F5C047F5
:1019400004F57875C4F8C424C4F8CC640246C4F81D
:10195000C8740E4684F8EB13C4F8EC3484F8F2141F
:1019600084F8F40401462B46402083F81C21A3F898
:1019700022210132042AC3E9490183F81D6183F859
:101980001F11C3F8301103F12803EED100221146D4
:101990002B46402083F87423A3F87A230132042ACB
:1019A000C3E9DF0183F8751383F87713C3F888134D
:1019B00003F12803EED14FF0A04369489A6822F062
:1019C00001029A60DA6842F04002DA605DF082FA61
:1019D00094F8E9330022212161F317420BB142F45C
:1019E000801294F8E313D4F8EC3301299A6307D1F9
:1019F0009A6822F03E0141F02A0161F307029A60E1
:101A0000DA68D4F8EC64D4F8F003C2F3076121F08B
:101A1000600141F0400161F31F620021DA60316032
:101A2000026861F3CC22026094F8EB23012A10D102
:101A300001684C4A4C4E41F003010160802159621B
:101A40009E62C3F804214FF4A072C3F80821C3F8C2
:101A50000C21102145485DF08FFD44485DF072FD7A
:101A6000D4F8F06394F8E13300204FF0FF32306196
:101A70007061B261F06143B305F114073C4A07EBB2
:101A800083074FEA830E4FF0FF0C52F8043F1968AA
:101A90000029ACBF00214FF09041BA421960186193
:101AA000C3F808C0F1D15035324A75440027FF20F1
:101AB00052F8043F19680029ACBF00214FF0904153
:101AC000954219601F619860F2D1336994F8E3136D
:101AD00043F48073012933611ED0D4F8EC232648E7
:101AE00000294FF000036FF080414FF0FF34936105
:101AF000516108BF102354605161906143F4701329
:101B0000916943F4605343F008030B439361936876
:101B100043F001039360F8BDD4F8EC23174B336313
:101B20006FF08041144800234FF0FF3493615161FE
:101B3000546051619061E1E7601D00204000400168
:101B4000200B00500008005000090050000B00500E
:101B500020090050004000500804010000600050BF
:101B60004C210020C0008000800040004021002067
:101B700054210020902100200008008003018100F2
:101B800030B51F4B5021082283B083F84313C3F8AC
:101B90008820BFF34F8FBFF36F8F1A4D1A4C2B6BFA
:101BA00043F001034FF4C0522B63694640F2023305
:101BB0002046CDE900235EF089FC636A23F470437C
:101BC0006362636A43F420436362636A23F47023AD
:101BD0006362636A43F4202363622C2054F050FA5A
:101BE000002154F0B7FA6B6C084A43F480436B64ED
:101BF0006B6B012143F080036B63516103B030BD17
:101C000000E100E00038024000000240003C0140DA
:101C100010B5802104465CF0C1FE204600215CF036
:101C2000BDFE2046BDE810405DF07AB930B50B4DE1
:101C300083B008240123D5F8280A00220DF10701FA
:101C400055F076FC9DF80730FF2B04D0013CF1D114
:101C5000204603B030BD012003B030BD601D002020
:101C600070B4C3080D4CE25C00F00706B24004EB10
:101C7000D004D2B20020C6F108038B4228BF0B4625
:101C8000C3F108052A419840C91A40EA02004FF002
:101C9000000614F8012FEED170BC704774270020A5
:101CA00070B5114E3378022B104B0D4607BFC4B2EE
:101CB000010AC0F3D41100F07F04186882B0084410
:101CC0000023012201A95BF089F801280AD13378A9
:101CD000022B019B16BF53F8243033F8143023F045
:101CE00070432B6002B070BD7463002074750020D7
:101CF00010B4D0E9011390F91A208B4238BF0B467B
:101D0000511C83600AD0184B02F5817203EB02125A
:101D1000FF21D3796FF30003D371817690F91B30E3
:101D20005A1C16D0104903F5817201EB021301EB26
:101D30000212DB79D179C3F34503012B86BF03F18E
:101D4000FF3303F03F030023FF2463F34601D17107
:101D5000C4760022436A5DF8044B4261426011463A
:101D600003615BF021B800BF746300202DE9F041EE
:101D7000804684B00846164657F076FA4FF47A72D9
:101D8000002304460D4660F0D7FDB6F900C00746B3
:101D9000294620464FF47A723C2400230CFB04773A
:101DA00060F0CAFD002594B24FF47A73C3FB074577
:101DB0002B46224601A857F0A3F9404B93F82E3A40
:101DC000012B2FD0022B10D19DF80670FB1E082B83
:101DD0000BD83B1F062B1BD9BDF80400394657F022
:101DE00025F9032F36D00B2F41D022462B464046F3
:101DF00057F086F904B0BDE8F081032F55D00A2FC3
:101E0000F3D19DF80870B7FA87F77F09002FECD05F
:101E100033882B4A3C33A4184FF00002338042EB46
:101E20000505E2E79DF80670FB1E072BDDD83B1F7A
:101E3000052BEDD9BDF80400394657F0F7F89DF8A9
:101E400007309842D9D0033F18BF0127002FDFD1B8
:101E5000CBE707380E28FCDC9DF80730834212D010
:101E6000CCBF01270027002FD2D1BEE707380728B3
:101E7000FCDC9DF8073083420ED0B4BF0127002759
:101E8000002FC5D1B1E79DF80870012F94BF00273E
:101E90000127002FBCD1A8E79DF80870012F8CBF47
:101EA00000270127002FB3D19FE79DF80870003F5E
:101EB00018BF0127002FABD197E700BF601D00209E
:101EC00080EE36002DE9F041B24C94F8433AC4F864
:101ED000300A82B088465A2B00F2B980DFE813F04E
:101EE000CC00B700B700DC00B700B700B700B70000
:101EF000B700B700B700B700B700B700B700B7002A
:101F0000B700B7001D01B700B700B700B700B700B2
:101F1000B700B70041017400B700B7007400B70004
:101F2000B700B700B700BA01B7006401B700B70047
:101F30007C00B700FE01B700B700B700B7005B0038
:101F4000B700B700B700B700B700B700B700B700D9
:101F5000B700B700B700B700B700B700B700B700C9
:101F6000B700B700B700B700B700B700B700B700B9
:101F7000B700B700B700B700B700B700B700B700A9
:101F8000B700B700B700B700B700B700B700B70099
:101F9000B700B700E60194F8443A9B0700F150827D
:101FA000B4F84A3AD4F8452AD4F8841A5BBA9BB2FA
:101FB00012BAD0188842C4F8903AC4F88C2A03D9CF
:101FC0005AF034FD002854DB0020A4F87C0A0546B2
:101FD000284602B0BDE8F08194F8883A002B40F022
:101FE000018194F9403A002B31DAD4F8783A084666
:101FF0009B689847002840F00782B4F84A0AD4F852
:10200000452AD4F8843A40BA80B212BA15189D42D3
:10201000C4F8900AC4F88C2A07D95AF007FD0028A2
:1020200027DBD4F88C2AD4F8900AD4F8803AD4F874
:102030003C6A00FB03F002FB03F20225B042C4F845
:102040008C2AC4F8900A84F8885A00F0D18094F859
:10205000543A5A1CD2B204EBC30305204FF400518A
:10206000042A84F8542A83F8580AC3F85C1A00F04A
:1020700095814FF0FF35ABE7D4F83C3A002BE6D121
:10208000D4F8783A08469B6898470546002840F0FF
:10209000BB81A4F87C0A9BE73F4B002203F11201AD
:1020A00003F8012F8B42FBD13C4994F87E3A94F817
:1020B000540A70250D7098424FF00C05CD7110D068
:1020C00004EBC300013390F8585A8D70B0F85C0AE5
:1020D000DBB2042B40BA888114BF84F87E3A84F8BE
:1020E0007E2A94F8473A12229342A4F87C2A0FD809
:1020F000A4F87C3A00256BE7B5F5805F28BF4FF464
:102100008055D4F8300A254AABB201215CF040FD7D
:102110000025284602B0BDE8F08194F8443ADA0779
:1021200000F12581D4F8783A94F8470ADA6901EB8E
:10213000C10102EB81010A79531D834228BF034686
:10214000A4F87C3A002BE3D0013B14489BB2013346
:102150001944034411F8012D03F8012D8342F9D1EC
:10216000D6E70F480F4E014608230738C1F107058F
:10217000A4F87C3A002202E092F8082119460B46A6
:10218000814203F8012905EB030216FA82F2F3D12A
:10219000BEE700BF601D0020735300207453002071
:1021A0007B530020448D0608D4F8783ABB4A5B681C
:1021B0000846111D98470546002840F02581D4F8AF
:1021C000843AB74AD4F8801A013B180E1070180CE4
:1021D00009BAD37050701B0A082093705160A4F89C
:1021E0007C0AF5E6D4F8906AD4F88C2AD4F8803AC0
:1021F000D4F8785AB2FBF3F24FF48057BE4228BFAE
:102200003E462D69A649A4F87C7A4046B6FBF3F316
:102210009BB2A8470028C0F2AF803346A04AD4F84A
:10222000300A81215CF0EEFBD4F88C2AD4F8900AB5
:10223000D4F89C3A3244851B9E1BC4F88C2AC4F8FF
:10224000905AC4F89C6A002D7FF462AF032384F88F
:10225000883ABDE6924F00263B4607F10C0203F890
:10226000016B9A42FBD1D4F8783A40465B686A46E3
:1022700001A998470546002840F0D080019BBDF891
:102280000020013B190E52BAFB713971190C1B0A5F
:1022900079710820BB7102217A810C23BDF80220DC
:1022A000F87039727A72A4F87C3A91E67D487E4ED5
:1022B000014608230738C1F10705A4F87C3A00223B
:1022C00002E092F8102119460B46884203F80129D2
:1022D00005EB030216FA82F2F3D119E794F8883A73
:1022E000002B61D194F9403A002BFFF6B0AED4F840
:1022F000783A08469B689847002840F08580D4F8D3
:10230000783A4046DB6898470546002840F0AC80A4
:10231000B4F84A3AD4F8452AD4F8840A5BBA99B298
:1023200012BA53188342C4F8901AC4F88C2A00F2E7
:102330009180D4F8803AD4F83C0A03FB02F203FB04
:1023400001F38342C4F88C2AC4F8903A7FF47FAE3C
:10235000B3F5805F28BF4FF480530121D4F8300AD1
:102360004F4A84F8881A9BB25CF012FC30E60723CF
:102370004E49A4F87C3AE7E694F8543A5A1CD2B293
:1023800004EBC30304204FF48851824284F8542A9A
:1023900083F8580AC3F85C1A7FF46BAE002384F804
:1023A000543A4FF0FF3513E6D4F8906AD4F8780A1F
:1023B000D4F8803AD4F88C2A4569B2FBF3F2B6F52A
:1023C000805F28BF4FF480560846B6FBF3F33449CC
:1023D0009BB2A847002856DBD4F88C2AD4F8905A30
:1023E000D4F89C3A3244AD1B9B1BC4F88C2AC4F829
:1023F000905AC4F89C3A002D7FF47EAED4F8300A8F
:1024000029465CF019FCE3E594F8543A5A1CD2B220
:1024100004EBC30302204FF4685121E694F8543AC8
:1024200004EBC3020133DBB202204FF46851042BEA
:1024300082F8580AC2F85C1A20D084F8543A18E698
:1024400094F8543A5A1CD2B204EBC30305204FF45B
:10245000105105E65AF0EAFA0028FFF60AAED4F861
:102460008C2AD4F8901A64E794F8543A5A1CD2B2E1
:1024700004EBC30302204FF41C51F1E584F8546AC5
:102480004FF0FF35A4E594F8543A5A1CD2B204EB4D
:10249000C30304204FF4407177E700BFE02700201A
:1024A000745300207B530020448D0608448E060898
:1024B000002170B5084653F021F80021012053F0A7
:1024C0001DF8104B104D01244FF4067618460121DB
:1024D0001BB1DE801C7253F03DFE032C08D055F872
:1024E0002430012101341846002BF2D1032CF6D1FF
:1024F0000021084653F002F8BDE870400021012099
:1025000052F0FCBF302900205C8E060899B10A6B9E
:10251000824216D9154BD3F81C2D914221D34C3948
:1025200091421ED30B6B9842F9D38B6B9842F6D82D
:102530000B46184670470D4BD3F81C1D0A6B904292
:1025400012D30B680BB9F4E70A6B90420B4602D327
:102550008A6B9042EDD951F84C3F002BF4D11846CC
:1025600070470023184670470A46D8E7601D0020D0
:102570002DE9F047CC0143D10346224A43F8082B0A
:102580004FF0FF324260022418467E26DFF8788042
:10259000D8F8209D2644013E051D49466FF070473E
:1025A0004FF0010A08E0A3421CD0631C45F8043C2C
:1025B000321B1C460435CAB10B6BA34202D88B6B8D
:1025C000A34204D22046FFF7A1FF014690B10A7949
:1025D0004B6B002AE7D1A34204D0E6D245F8042C85
:1025E000631CE5E745F8047C631CE1E7C8F8201D9F
:1025F000BDE8F08745F804AC321B631C4946D8E7B8
:102600008026C3E7F8FFFF0F601D002070B5054668
:10261000144895F91030AA6803EB830300EB830399
:102620009207D3F800620C4610D5D4E90123216843
:1026300030465FF03BFAD4E90423E16830465FF0AE
:1026400035FAAB689B0708D5012070BD686953F067
:102650004FFE082050F080FFE7E7284653F0B4FF14
:10266000012070BD000000202DE9F04F2DED108BF2
:10267000034693B004331193DFEDC1AA10900223F7
:102680000F928B460E938946109C4FEADB0504EBB4
:10269000451202EB0511A5EB85034FEAC5084FEA89
:1026A000051E05EB850A009101EBC30308F1040048
:1026B0000EF104012E46204405EB450521444FEA66
:1026C000CA040D9602942C01C6EBC60C0394EC00D0
:1026D0000D9D04944FEACC0405946C010194119D66
:1026E000009C03EB46174FEACB0A02EBC6064FF0FD
:1026F000000C55ED011A11ED012AD6ED005AD7ED67
:10270000004A92ED003AD4ED003A10ED015A93EDF3
:10271000004A72EE238A34EE248A71EE836A35EE23
:10272000257A36EEA86A77EE087A35EE655A76EEA7
:10273000275A36EE676A45ED015A82ED006A90ED40
:1027400000AAD6ED012A93ED016AD7ED019A94ED26
:10275000010AD1ED005AD5ED007A92ED019A34EEDE
:10276000644A76EE690A7AEE624A35EEC01A31EEB4
:10277000C33A72EE633A34EEA02A77EEC91A74EEC9
:10278000E04A75EE805A75EE440AB0EE410A35EE25
:10279000045AA2EE2A0ADC44E145A2EE6A1AB0EE1F
:1027A000434AB0EE432AA0EEAA2AA0EEEA4AB0EECF
:1027B000613AF0EE610AE4EEAA0AA4EEEA3AF0EE1B
:1027C000634AE5EE6A3AE5EE2A4A7AEE222A36EEC6
:1027D000296A77EE897A72EE861A37EE487A32EEF7
:1027E000C66A76EEE86AB0EE635A77EEA53A77EEFF
:1027F000E57A73EEA18A36EE868A73EEE13A76EEDA
:10280000C66A77EEC71A72EE002A77EE277A74EE60
:10281000015A30EEE46A33EE457A32EE402A34EE65
:10282000414A74EEA04A35EE035AC5ED008AC2ED66
:10283000013A554401ED018A5244C4ED006AC1EDEC
:10284000001AC4ED017A514440ED012A544487ED49
:10285000002AC6ED005A83ED004A80ED006AC7EDFC
:10286000014A504486ED017A574483ED015A56449B
:1028700053443FF63EAF0D9B072B40F2A3810198D6
:10288000109D059B049A0399029C08302818083370
:102890000A902846C318083282180593034608F1A7
:1028A00008080EF10C0E0C3308340831069202466B
:1028B000454472440419411804934B460995D14686
:1028C0000894079103924FF001084FF0000E9A46CA
:1028D0000E9B9E440F9B03EBCE0303EBCE0202EB59
:1028E000CE0000EBCE0404EBCE0505EBCE060C9338
:1028F00006EBCE07AEEB8E030B9207EB031202EB57
:10290000CE0C0CEBCE03029203EBCE0201931346E6
:10291000D3ED01DA019BD0ED007A93ED01DA029B51
:10292000CDED027A93ED01CA0B9BDCED01CAD3ED2C
:10293000007A0C9BCDED017A02EBCE0202EBCE01C8
:10294000009201EBCE02D3ED007A92ED01FA009AEB
:10295000D1ED01EA92ED01EAD7ED00BA96ED00BAA9
:1029600095ED00AAD4ED009ACDED007ADDE903766D
:10297000DDE90554DDE90701DDE90923C44601E08D
:10298000F304353F91ED006A56ED01FAD0ED002ACF
:10299000D4ED005AD5ED006A93ED007A57ED017A37
:1029A00092ED002A96ED008A7FEE870A32EE061A33
:1029B00037EEA24A75EEA64A70EE841A31EE245A1A
:1029C00032EE462A31EE856A75EEE65A06ED016A68
:1029D000D4ED018A92ED019A91ED013A95ED016AEB
:1029E00097ED000AD0ED016AD3ED013A3FEEC77AC8
:1029F00077EEE27A78EEC6FA79EE432A39EE033AB8
:102A000030EE669A38EE866A70EE266A78EE638A51
:102A100032EEEF0A72EEAF2A78EE233A30EEC44A75
:102A200032EE258AF0EE490A72EE655AE2EEAA0A03
:102A3000DC44E245A2EEEA9AB0EE682AF0EE472ABC
:102A4000E5EEAA2AA5EEEA7AA0EE2A2A73EE065A45
:102A5000E0EE6A8AF0EE67FA33EEA60AE8EE6A7AEA
:102A600071EE644A31EEC55A33EE463A70EE651A9D
:102A700073EEE63A34EE036A72EEA06A34EE434A2D
:102A800072EEE00A33EEE43AE8EE2AFA74EEA33A84
:102A900065EE6D2A77EE094A37EE499A38EEE77A05
:102AA00077EEA88A6DEEA17A9DED018AE9EE857A2E
:102AB000E9EEA12A26EE6C5A6CEE831A32EE6F1AFA
:102AC000A8EE035AE8EE061A2EEEA33A24EE6E6A3A
:102AD0009DED008A3FEE822AABEE043AABEE236A0C
:102AE0002CEE014A66EECC3AA8EE264AE8EE013A10
:102AF0006FEE026A20EECF1AEBEEA06AABEE821AFE
:102B000064EECE0A2EEE072A9DED028AEAEE070A4F
:102B1000AAEE242A2DEE287A69EE4D4AA8EE097A0B
:102B2000E8EE284A70EE255AC6ED005AC3ED007A49
:102B3000C3ED012A4E4447ED011A87ED005A4B447C
:102B400080ED003A80ED016A4F4482ED004AC2ED0B
:102B5000013A4844C5ED006A85ED011A4A4481ED09
:102B6000002A4D44C1ED010A84ED007AC4ED014A0A
:102B700049444C443FF606AF0A9B08330A93099B2D
:102B800008330993089B08330893079B083307937E
:102B9000069B08330693059B08330593049B083373
:102BA0000493039B083303930D9B08F101084345ED
:102BB0007FF48EAE0E9BDDF834B0DB009BB2D146C5
:102BC0000E9361E513B0BDEC108BBDE8F08F00BF34
:102BD0000023034A426003608360C360704700BF04
:102BE00083F9223E10B40549054A064B4160002492
:102BF000046082605DF8044BC36070475B128B3ADF
:102C00006F12033B8943273F804BB3FBF2F399429A
:102C10000DD300234FF07E5243608360C360036195
:102C200002600023836143610362C361704707EE62
:102C3000902A9FED777AF8EE676A07EE901A66EEB3
:102C4000876AF8EE677A66EEA76AFDEEE67A17EE17
:102C5000903A2033402B00F2CA80DFED6E7AF4EE1A
:102C6000E76AF1EE10FAF0EE667A0CDDDFED6A5AF3
:102C70009FED6A6AB0EE677AB4EEC67AF1EE10FAAA
:102C800077EEE57AF6DC9FED667AF4EEC77AF1EE40
:102C900010FA0CD5DFED605A9FED626AB0EE677AEC
:102CA000B4EEC67AF1EE10FA77EEA57AF6D49FED7F
:102CB0005E7AF4EEC77AF1EE10FA00F390809FEDA1
:102CC0005B7AF4EEC77AF1EE10FA44BF9FED547AC6
:102CD00077EE677A27EEA76ADFED554A9FED557AC2
:102CE0009FED555ADFED555AA6EE247A67EE864AD7
:102CF000A6EE075AB6EE007AE6EE055AE4EEA57A9D
:102D000027EE877A9FED486A76EE867AFDEEE75ADF
:102D100015EE903A2033402B66D8F4EEC66AF1EEF9
:102D200010FA0CDDDFED3C5A9FED3C6AF0EE676A6D
:102D3000F4EEC66AF1EE10FA77EEE57AF6DCDFED36
:102D4000386AF4EEE67AF1EE10FA0CD5DFED325A7D
:102D50009FED346AF0EE676AF4EEC66AF1EE10FA9F
:102D600077EEA57AF6D4DFED306AF4EEE67AF1EE8E
:102D700010FA3FDDDFED276A76EEE77A67EEA76AA5
:102D8000DFED2B4A9FED2B5ADFED2B5A9FED2B6A7F
:102D9000A6EEA45A67EEA64AE6EE855AB8EE005AA9
:102DA000A6EEA56AE4EE867A67EE857AC7EE006A3B
:102DB000B7EE006A76EE865A76EE666A86EE257A79
:102DC00067EE277A66EE876AC0ED017AC0ED037A76
:102DD00080ED007A80ED027AC0ED046A21E79FED74
:102DE0000D7A77EE677A75E7DFED157ADEE79FED0E
:102DF000147A87E7DFED0D6AF4EEE67AF1EE10FA69
:102E000044BFDFED076A76EEE77AB7E720A1070057
:102E100027D4D236DB0F4940DB0FC940E4CB164143
:102E2000DB0F49C0E4CB16C1DB0FC93FDB0FC9BFC5
:102E30009A7C2E36FAAF4FB93587083CA4AA2ABE31
:102E400000000000034B6428B8BF6420C3F84C06A0
:102E5000704700BF00000020034B64281B69B8BF07
:102E60006420D860704700BF000000102DE9F047D3
:102E700090B0DDE918480E460746914601A83C226D
:102E800000219A461A9D65F0C2FE2E4B8DF8046013
:102E9000CDF834800293002E50D0B31E012B4FD9B1
:102EA000042E14BF00230323DFF89C808DF8053027
:102EB000D8F8683D03941C440123CDE905570494D8
:102EC0008DF83130B9F1000F06D05246494607A8B7
:102ED00065F06AFC8DF830A098F86EED0023BEF125
:102EE000010F0E931CD801AC0FCC98F86DCDCCEB34
:102EF0000C1508EB850505F557650FC50FCC0FC5FB
:102F00000FCC0FC594E80700BCFA8CFC0EF1010E43
:102F10004FEA5C1C85E8070088F86EED88F86DCDF7
:102F20003B6843B153464A463146384610B0BDE887
:102F3000F0472CF0E7BD10B0BDE8F0870523B3E7FC
:102F40000223B1E7882A0020601D0020264BF0B440
:102F500003F58A5482B024783CB9002303604360AF
:102F60008360204602B0F0BC704741F24C1541F23C
:102F700048165F594D689E5901950D689FED1B6A73
:102F8000AE1B019DED1B07EE905A03F6EC55D5EDF7
:102F9000D66A07EE106A66EE866AB8EEC77AF8EE71
:102FA000E77A27EE067A67EEA67A012A80ED007AA4
:102FB000C0ED017A0ED041F250158A685B59D21AE1
:102FC00007EE902AF8EEE77AC0ED027A204602B0CA
:102FD000F0BC7047D1ED027AF8EEE77AC0ED027AE4
:102FE000204602B0F0BC7047601D00202C7D8E3F53
:102FF000204B70B503F58A562DED028B32780446CE
:103000000D468AB341F24C1141F2501259589A5868
:1030100041F248101858206003F6EC53C4E901123D
:1030200093EDD68ADFED148A95ED000A80EE280A2A
:1030300062F00CFB23681844206028EE288A95ED86
:10304000010A80EE080A62F001FB636818446060C0
:1030500095ED020A62F0FAFABDEC028BA368024613
:1030600013443078A36070BDC0E900228260B7EEDF
:10307000008AD7E7601D00202C7D8E3F002303606F
:10308000704700BF0023094980ED010A01228162D7
:1030900002708360C3604361036183634363C363FE
:1030A000C36203630364836143647047000020418B
:1030B00030B4174B1749C3F8B41603F5DA6500218D
:1030C0001224154A154883F8984683F8901642F65C
:1030D000F82403F5D361C3F8C4560025C1E90245BD
:1030E000C3F8B80630BC0120C3F8D026C3F8D426F4
:1030F000C3F8D826C3F8DC26C3F8E026C3F8E426D4
:10310000C3F8E826C3F8EC26C3F8F026704700BFE2
:10311000582E0020DD590208E003E003E9590208B7
:10312000074B0849D3F8C426C3F8B416931E4FF4CE
:103130007871223223F8021F9342FBD1704700BFFF
:10314000582E0020C555020870B5244E244BC6F8F1
:10315000B43611244FF4787506F5DF634FF47870B8
:1031600086F898464FF47874C3E90045C3E90245F0
:10317000C3E90445C3E90645C3E90845C3E90A456F
:10318000C3E90C45C3E90E451649C6F8380784B0B3
:1031900006F5D36241F60B2400254020C2E9024522
:1031A000C6F8B8162DF0EEFBB0B196F843370E4ACC
:1031B00090F904000092012B0CBF08220022032387
:1031C000CDE901324021094A00232DF0F1FAC6F879
:1031D0005C07003818BF012004B070BD582E0020D5
:1031E000F9600208F1610208A0680600616D02083A
:1031F00070B40D4B0D4CA34203D311E00C33A3422A
:103200000ED25A798242F9D1DA798A42F6D11A6815
:103210001E791579AE42F1D115689D42EED100E0DC
:103220000022104670BC7047348C0708E48D0708F4
:1032300070B50D4E82B0052400250A2050F05AF9D1
:10324000D6F860078DF807500DF10702002153F002
:10325000A3FA18B19DF80730482B02D0013CECD1FD
:10326000204602B070BD00BF582E0020642828BF41
:1032700064201C4B00EB800070B54500A3FB0523C8
:103280005E095B0918BF002422D001349F2053F04F
:10329000D7FDE3B29E42F8D80A2E00D170BD124885
:1032A000A0FB05300009C6EB8613C6EB8303663826
:1032B0001844C0B253F0C4FD092E06F10104EDD04C
:1032C00001349A20E4B253F0BBFD0A2CF8D170BD52
:1032D0000548A0FB053000096638C0B253F0B0FDC8
:1032E0000124EDE71F85EB51CDCCCCCCF0B41C4FC5
:1032F00097F8A837072B30D80C2404FB037401334C
:1033000004F5F664DBB254F8042CD1070ED5024262
:103310000CD094F900601349002291F90050B54295
:1033200001F10C010ED00132082AF6D10133DBB2D3
:10333000092B04F10C04E6D1082387F8A8370020F4
:10334000F0BC7047084987F8A83702EB420201EB4E
:103350008202F0BCD2F8940170470020F0E700BF71
:10336000582E0020F01E0020601D002001448842DD
:1033700018D030B4441E4D1E002041F2210114F833
:10338000012F082380EA022010F4004F81EA400256
:103390000ABF400090B280B2013BF5D1AC42EED101
:1033A00030BC704700207047D0ED017AF5EE407ACE
:1033B000F1EE10FA05D19FED0C7AF0EE477A80ED30
:1033C000017A30EEA77AD0ED007AC0ED020AC0EEA5
:1033D000876A30EE670AC0ED036AE6EE807AB0EEE7
:1033E000670AC0ED007A704783F9223EBCEEC00A3E
:1033F0007F4AB2FBF1F210EE103A9BB2934208D32F
:1034000000234FF07E5243608360C360036102601B
:10341000704707EE901A9FED777AF8EE676A07EE2D
:10342000903A66EE876AF8EE677A66EEA76AFDEE76
:10343000E67A17EE903A2033402B00F2CA80DFED97
:103440006E7AF4EEE76AF1EE10FAF0EE667A0CDDD1
:10345000DFED6A5A9FED6A6AB0EE677AB4EEC67A1B
:10346000F1EE10FA77EEE57AF6DC9FED667AF4EE8F
:10347000C77AF1EE10FA0CD5DFED605A9FED626A63
:10348000B0EE677AB4EEC67AF1EE10FA77EEA57A6E
:10349000F6D49FED5E7AF4EEC77AF1EE10FA00F3FF
:1034A00090809FED5B7AF4EEC77AF1EE10FA44BF9C
:1034B0009FED547A77EE677A27EEA76ADFED554ADB
:1034C0009FED557A9FED555ADFED555AA6EE247AB9
:1034D00067EE864AA6EE075AB6EE007AE6EE055A81
:1034E000E4EEA57A27EE877A9FED486A76EE867A33
:1034F000FDEEE75A15EE903A2033402B66D8F4EEF5
:10350000C66AF1EE10FA0CDDDFED3C5A9FED3C6A25
:10351000F0EE676AF4EEC66AF1EE10FA77EEE57A3D
:10352000F6DCDFED386AF4EEE67AF1EE10FA0CD54F
:10353000DFED325A9FED346AF0EE676AF4EEC66A48
:10354000F1EE10FA77EEA57AF6D4DFED306AF4EEFC
:10355000E67AF1EE10FA3FDDDFED276A76EEE77AE4
:1035600067EEA76ADFED2B4A9FED2B5ADFED2B5A52
:103570009FED2B6AA6EEA45A67EEA64AE6EE855AA0
:10358000B8EE005AA6EEA56AE4EE867A67EE857A72
:10359000C7EE206AB7EE006A76EE865A76EE666A65
:1035A00086EE257A67EE277A66EE876AC0ED017AA5
:1035B000C0ED037A80ED007A80ED027AC0ED046AF6
:1035C00070479FED0D7A77EE677A75E7DFED157A34
:1035D000DEE79FED147A87E7DFED0D6AF4EEE67A19
:1035E000F1EE10FA44BFDFED076A76EEE77AB7E74F
:1035F00020A1070027D4D236DB0F4940DB0FC9409A
:10360000E4CB1641DB0F49C0E4CB16C1DB0FC93F49
:10361000DB0FC9BF9A7C2E36FAAF4FB93587083C0D
:10362000A4AA2ABE00000000D0ED015A037830EEB3
:10363000605AF0EE407A65EE255A002B47D190EDA6
:103640000C7A37EE607AD0ED0A4AC0ED0C0AF5EE3E
:10365000C04AF1EE10FAC7EE016A3DDC90ED037A44
:1036600026EE877A90ED056AD0ED0B6A27EE866A22
:1036700067EE222A76EE267A77EEA57A77EEA27AA0
:10368000F4EEE17AF1EE10FA48D4F4EEC27AF1EEFB
:1036900010FA8CBFB0EE420AB0EE670A70EE677A9D
:1036A000D0ED044A90ED027AC0ED0D6A67EEA47A7F
:1036B000C0ED0E5AE5EE077AC0ED0F2AE1EE276A5B
:1036C00080ED106A80ED110AC0ED0B6A704700238F
:1036D0009FED147A0370B6E790ED076A90ED034A08
:1036E000B5EE406AF1EE10FA05D19FED0F7A87EE44
:1036F000246A80ED076A31EE066A90ED067A80ED65
:10370000081AC1EE064A76EEC76AC0ED094AA4EE71
:10371000A67A80ED067A24EE077AA3E7B0EE610A76
:10372000BCE700BF0000000083F9223E70B43448BB
:1037300090F81038A3F13001092957D800F5016439
:10374000224600F61F0012F8015FA5F13001092999
:1037500004D88242F7D1002070BC7047141B022CA1
:103760004ADD2848002101E010F8013B01EB81010E
:1037700003EB4103161A303B022E044603F0FF010F
:10378000F2DC214B03FB01F1A2424FF000030DD903
:1037900003EB830314F8016B5B00303B3344A2421C
:1037A00003F0FF03F4D1194800FB03F32E2D06D0DC
:1037B0001748A0FB032301EB930070BC7047013254
:1037C00004200024157804EB8404303D6400092DA6
:1037D00000F1FF30A4B202D82C44A4B2013210F0A0
:1037E000FF00EFD1642202FB0433E1E700211D4614
:1037F00000F501620B46D9E7064C0021C4E700BF83
:10380000582E0020693600208096980040420F0014
:10381000ABAAAAAA6836002080EAE073A3EBE073A3
:103820008B420ADB00280ADD431A4FF4FA72501A61
:1038300002FB03F393FBF0F0704700207047FDD0CC
:1038400000F5FA734FF4FA70411A00FB03F090FB95
:10385000F1F0A0F5FA7070479B1A00FB03F090FBA3
:10386000F1F01044704700BF71EEC11A61EE801A8A
:1038700081EEA00A30EE010A704700BF084B03F545
:1038800002600DC8824202DB114602460846984299
:1038900004DD9A42B8BF1A4610467047704700BF11
:1038A000582E002030B4144AD2F82C08D2F8303800
:1038B000D2F83448D2F83818D2F83C28834202DBD8
:1038C0001D46034628468A4202DB15460A4629461B
:1038D0008842A8BF08469342B8BF1346A04202DC04
:1038E000224604461046834203DAA342B8BF234669
:1038F000184630BC704700BF582E00200B6810B42B
:1039000014681B1B036054684B681B1B43608B6867
:1039100092685DF8044B9B1A836070472DE9F04173
:10392000274B86B09C1D1E4603F160081F464FF0D2
:10393000000C94F800E0A0EB0E05A0EB0C02002DAB
:10394000B8BF6D42002AB8BF52429542B8BF274661
:1039500004F10604B8BF4FFA8EFCA045E9D17C887B
:1039600003F15A0E002204E02546B64516D016F89B
:10397000062F6245F8D1B6F80280A1EB08020B1BB6
:10398000002AB8BF5242002BB8BF5B429342254683
:10399000EBDDB645444645463746E8D17E793C796D
:1039A00002953A78019200910346CDE90346054A13
:1039B0000321012056F098FF384606B0BDE8F0819B
:1039C000688E060810210708074BD3F84828D3F85B
:1039D0004018D3F84408C3F840085242C3F84418CA
:1039E000C3F84828704700BF582E002030B504683F
:1039F000E46985B02CB10DF10F050095A04705B025
:103A000030BD204605B030BD38B50A4C0A4D2321E3
:103A1000D5F84C0854F0BEFB14F8011F0029F7D16B
:103A200006484FF05FFC95F8503813B1012385F834
:103A3000513838BD4C210708582E0020582107085E
:103A40002DE9F04F89B0CDE90621DFF8B0800746B7
:103A500099460026069B002B07DBB34205D00136B2
:103A6000042EF7D109B0BDE8F08F079BC6EB461BCB
:103A700003EBCB0A204B002403EBCB0BB9F1000F77
:103A800033464246384601DBA14530D13BF814505D
:103A90003AF81410009415F4006FA1EB050114BF5F
:103AA0004FF0560E4FF0480E05F01F0CB1FA81F1A1
:103AB000C5F344154909CDE901C5CDF80CE00591E0
:103AC0004DF07CFC3AF814300599009413F4006F23
:103AD00003F01F0214BF56204820C3F34413CDE95E
:103AE000012303903346424638464DF083FC0134AF
:103AF0007C2CC3D1B3E700BFAC3600206821070897
:103B00002DE9F04F3C4B3D4D3D4A3E4CDFF8FC80EB
:103B100041F254768946074641F25571985D5956EF
:103B2000002808BF2A468BB037484DF017FA4D469B
:103B30000026B9F1000F3ED022782B789A426A68AD
:103B40003BD0D5E902CE0021A87D0790B5F914003D
:103B50000690B5F912000590B5F910000093CDE973
:103B600003E0CDE9012C33464246384609914DF039
:103B700025FC09996268A37DB4F914B0B4F912A0C8
:103B8000B4F910E00793D4E9020C14F8183B009341
:103B9000CDE901203346CDE905ABCDE903CE424660
:103BA000013638464DF026FC3C2E05F11805C0D1F3
:103BB0000BB0BDE8F08F4946DCE76168D5F808C076
:103BC000914202D0D5F80CE0BDE7A168D5F80CE031
:103BD0006145B8D1E1687145B5D12069296988424C
:103BE000B1D16069696920F07F4021F07F4188424E
:103BF000A9D10121A8E700BF601D0020842107088A
:103C0000A8260708142F00208821070898210708F4
:103C10001D4A2DE9700354691C4E002CD6F840361D
:103C200003600EDD1832002306F5C86501E09C42F2
:103C300007D052F8041BA94203F10103F7D1012276
:103C400000E00022D6F84C3683600271104A96F8E4
:103C5000503643711346F3E80289D3E90045D6F89C
:103C6000703652F8042CD6F8681681625B0943EA74
:103C7000C2635209C0E90489C0E90645C0E90832B7
:103C8000BDE87003704700BF000000100000002076
:103C9000780600200C4608B505462CF0B5FB2046FA
:103CA0002CF0B2FB0021084651F028FC0021012035
:103CB00051F024FC03E020464FF0E0FFF0B9284625
:103CC0004FF0DCFF0028F6D00121002051F016FC57
:103CD00028464FF0CBFF064620464FF0CBFF00288A
:103CE000FAD0314620464FF0EFFF0021084651F050
:103CF00005FC20464FF0C2FF0028E0D00121002043
:103D000051F0FCFB20464FF0B1FF064628464FF02D
:103D1000B1FF0028FAD0314628464FF0D5FF0021E8
:103D2000084651F0EBFBCAE7F0B50023C1E90033C8
:103D3000C1E902330B610268DFF88CC089B004ADC1
:103D4000C2F385572E4647FA03F0C007344604D520
:103D500013F80C0004F8010B26460133062BF2D1B0
:103D60001748C2F303240444002394F88C413370B1
:103D70008DF8184000F5CA7CC2F305370DF119061D
:103D800047FA03F0C007344604D513F80C0004F8D2
:103D9000010B26460133062BF2D100233370C2F308
:103DA000834406ABCDE90134084602F00F03054910
:103DB0000095C2F3031255F057FB09B0F0BD00BFE8
:103DC000448D0608B8210708C88E0608014BD3F8B1
:103DD0007802704700000020014BD3F85003704771
:103DE00000000020014BD3F8C00270470000002003
:103DF00010B4414A92F8A930D2F89000023BD2E9BF
:103E00002214062B74D8DFE803F05A5C6050065584
:103E1000040064424942404280EAE073A3EBE0734D
:103E200006EE903A84EAE473A3EBE47307EE103AEB
:103E3000F8EEE66A9FED316AB8EEC77A26EE866A3A
:103E400081EAE173A3EBE17307EE903AB4EEC76A3F
:103E5000F1EE10FAF8EEE77A04DDB4EEE76AF1EE7F
:103E600010FA34DC9FED256A27EE066AB4EEE76AA5
:103E7000F1EE10FA04DDF4EEC66AF1EE10FA2DD47C
:103E80009FED1E6A67EE867AB4EEE77AF1EE10FADD
:103E90002BD5F4EEE76AF1EE10FA26D50029CCBF57
:103EA000042005205DF8044B70474B4240422146F8
:103EB0001C46B1E7634240420C461946ACE7494212
:103EC000AAE74B4261421C46A6E76442A4E70028E9
:103ED000CCBF002001205DF8044B7047002CCCBF04
:103EE000022003205DF8044B70474FF0FF30D9E704
:103EF00023460C4619468FE700000010ABAA2A3F64
:103F000070B5284CDFED286A94F8473794F8342CC4
:103F1000D4F8585C07EE103A94F8483707EE903A18
:103F2000B8EEC77AF8EEE77A27EE267A67EEA67A39
:103F300004EB4206BDEEC77A0132FDEEE77A02F0ED
:103F40000F01B6F8383C84F8341C17EE102A17EE2F
:103F5000901AC31A2B448A42C4F8583C82B0A6F87F
:103F6000380C4FEA131312DC17EE101A17EE902AD2
:103F700098B240F2FF350023009556F04BFA2A46DE
:103F8000002156F069FAA4F85C0C02B070BD9BB237
:103F90009942D4BF581A00208242A6BF101A80B29C
:103FA0000020E6E7582E002014AE2341054A064BB8
:103FB00092F8FD1D054A002908BF134693ED020A39
:103FC000704700BF601D0020502E0020382E0020BA
:103FD0002DE9F04F2DED028B87B00446324D03934F
:103FE00010460E46B0EE408A17465DF0B3FED5F897
:103FF00060BC9DF848A0DBF800308BF80B604FF0F8
:10400000000820448BF80A00CDF80080584632465C
:10401000D3F814B09DF84C903B462146D8479FED0D
:10402000230A039B019328EE000A5346FDEEC07A53
:10403000CDF8008017EE901A424604A813F0FAFD5E
:10404000D5F8643C13B11B784B452AD0D5F8703CA9
:1040500013B11B784B4524D0D5F87C3C13B11B78A9
:104060004B451ED0D5F8883CCBB11B78A3EB090992
:10407000B9FA89F94FEA591938465DF06BFE0134F7
:104080000444E1B2D5F8600CCDF8009004AB3246A0
:1040900052F0C2F907B0BDEC028BBDE8F08F994633
:1040A000EAE74FF00109E7E7582E00200000C84278
:1040B00030B41C7884B1012C0CD1B3F902408AB120
:1040C000157B94FBF5F40470B3F90430527B93FB39
:1040D000F2F30B7030BC70479A780270DB780B708B
:1040E00030BC7047054A82FB0452E417C4EB6204FB
:1040F0000470B3F904301222E9E700BFABAAAA2A80
:1041000030B41C784CB1012C05D1B3F90220B3F9BD
:10411000043002600B6030BC70479C7852B1157B54
:10412000DB7815FB04F40460527B03FB02F330BC24
:104130000B60704704EB4404A400DB780460122297
:10414000F3E700BF30B583B00C460546019210F08E
:1041500047F8019B2246294652F014FA094A92F97F
:10416000943C02EB430101335BB2352BC8BF002303
:10417000012081F8985C81F8994C82F8943C03B056
:1041800030BD00BF582E00200F4B93F84C2E012A53
:1041900012D910B582B004220C888B788DF80400F7
:1041A0000DEB02017420ADF805408DF807302CF0BE
:1041B00069FD012002B010BD01D00020704793F8C6
:1041C0004D3E622BE5D8F8E7582E0020F8B5214D7A
:1041D0001D260C46074685F8746E2CF037F8002033
:1041E0002BF0C0FF08202BF0BDFF0E202BF0BAFFF4
:1041F00030462BF0B7FF04202BF0B4FF04202BF047
:10420000B1FF00202BF0AEFF30202BF0ABFF0020E1
:104210002BF0A8FF20462BF0A5FF00202BF0A2FFDB
:104220002BF0F6FF05F678602BF000FF00B9F8BD23
:1042300095F8783E63B995F8793E302B00D03BB9BC
:1042400095F87A3E23B995F87B3E3B700120F8BD86
:104250000120F8BD582E00202DE9F04FDFF8F48240
:104260002DED028B00220023C8E93C23002387B0F8
:1042700008F1F8011A4601F833200133122BFAD164
:10428000B14CB24DDFF8D092DFF8D0A29FEDB08AEA
:1042900004F54076A5F190070DE007EBC303227803
:1042A000D3F8903002B16BB900232B601834A642CA
:1042B00005F1080541D094F90130002BEDDA23789F
:1042C000002BF1D02B79DB07F0D4A168207929F0FD
:1042D0005BFB21698346207B29F056FBA2780346CD
:1042E000282AE1D8DFE812F039006F005400680096
:1042F00083008C005200340016021E0224024A027F
:104300002C0231023902410296009F00AA00B3003C
:10431000C300D300ED00B101B901BF01D701DD0138
:10432000E301E901F2010802FF00080121013C015B
:10433000610170017F01A201760097F8A03113B1ED
:1043400097F8A2319BB907B0BDEC028BBDE8F08FA6
:10435000BBF1000FA8D00028A6D0237D01222A603F
:10436000DA07A3D52B7943F001032B719EE797F869
:10437000A121D7F8A401402152F026FD002387F89F
:10438000A23107B0BDEC028BBDE8F08F40F2826332
:104390009B45D4BF4FF0000B4FF0010B237DC5F8B8
:1043A00000B0DB0782D5BBF1000F3FF47FAF2B7964
:1043B00043F001032B7179E78345ACBF4FF0000B4D
:1043C0004FF0010BEAE7ABEB000BBBFA8BFB4FEABC
:1043D0005B1BE3E70028E1D09BFBF0F047F6FF72A0
:1043E00003FB10B0494656F037F88346D6E740F253
:1043F00034539B45CCBF4FF0000B4FF0010BCDE782
:10440000ABF2355BBBF5A77F2CBF4FF0000B4FF035
:10441000010BC3E700FB0BF047F6FF72494656F06D
:104420001BF88346BAE70028B8D09BFBF0F047F6AC
:10443000FF72494656F010F88346AFE75FFA8BF0FB
:104440001946009329F07AFA009B9B46A6E75FFA8B
:104450008BF201901046009229F08AFA019B009A93
:1044600003EB000B5946104629F068FA96E75FFA0D
:104470008BF201901046009229F07AFA019B009A83
:10448000A0EB030B5946104629F058FA86E75FFA6D
:104490008BFBBBF1070F00F27681C2B2003A97F8AE
:1044A000A11118BF01220120524200FA0BFB4A4021
:1044B00002EA0B024A409B4687F8A12187F8A20135
:1044C0006CE7D8F8F030227D43F00103C8F8F030F3
:1044D000D0074FF001032B607FF5E8AE2B7943F056
:1044E00001032B71E2E6D8F8F030C8F808B243F0C7
:1044F0008003C8F8F03051E707EE90BAB8EEE70A4B
:10450000002808BF4FF4FA7320EE080A009356F013
:1045100075F9009B07EE903AF8EEE77A27EE800AED
:10452000FDEEC07A17EE90BA38E707EE90BAB8EE13
:10453000E70A002808BF4FF4FA7320EE080A009338
:1045400056F0E2F8E5E700BFE03C0020E03F002045
:1045500035FA8E3C000000100080FFFF1F85EB51F4
:1045600007EE90BAF8EEE78A002868EE888A08BF5E
:104570004FF4FA73B0EE680A009356F03FF9F0EE8C
:10458000407AB0EE680AF0EE678A56F0BDF8C8EEE1
:10459000807A009B07EE103AB8EEC77A67EE877A0A
:1045A000FDEEE77A17EE90BAF8E61A465846002173
:1045B000009355F051FF009B002219464FF47A7387
:1045C000FFF74AF98346E9E600904FF47A725846BD
:1045D000002155F041FF009B00224FF47A71FFF754
:1045E0003BF98346DAE6009011220BF1FF300021FF
:1045F00055F032FF009B08EBC00B184601234FF427
:10460000FA624FF47A718BF8F83055F025FFD8F83C
:10461000F020217DCBF8FC00012342F48072C90711
:104620002B60C8F8F0203FF59DAE3FE6642000FB0C
:104630000BF055F091FF8AFB003BC017C0EB6B1BE2
:104640000FFA8BF030F0CAFAA8E6D8F8F030227DE5
:10465000C8F8E4B143F0020338E7D8F8F030227D1F
:1046600043F0040332E7D8F8EC319B453FF41CAE2D
:10467000D7F8900102A94EF07FFE002848D0584696
:104680009DF80A20012155F0E7FE8346C8F8EC01A9
:1046900087F8960182E6D8F8F030227D43F00803CF
:1046A00014E7D8F8F030227D43F010030EE7D8F875
:1046B000F030227D43F0200308E7D8F8F030C8F846
:1046C000FCB143F04003C8F8F03067E6D8F8003298
:1046D0009B453FF4E9ADD7F8900102A94EF04CFE9E
:1046E000B0B158460522012155F0B6FE8346C8F800
:1046F000000287F8940151E6D8F804329B453FF454
:10470000D3ADD7F8900102A94EF036FE00283CD177
:104710002860CBE5BBF1000F7FF41FAE00287FF4CB
:104720001CAEC2E5BBEB000B18BF4FF0010B35E62A
:10473000BBF1000F3FF411AE00283FF40EAEB3E51D
:10474000BBFA8BFB4FEA5B1B28E6BBF1000F7FF443
:1047500004AE28BBD5F800B020E6584447F6FF72F7
:10476000494655F079FE834618E6ABEB000047F664
:10477000FF72494655F070FE83460FE65BEA03037D
:104780003FF4EBAD90E5834608E658460822012148
:1047900055F062FE8346C8F8040287F89501FDE5EE
:1047A000C5F800B082E500BF164991F8102832B371
:1047B000F0B4064600200346074602E092F81028AF
:1047C000DAB100EB80002E2A4FEA400004D1013319
:1047D000CA18324482F81078CA18A0F1300592F84D
:1047E0001028A2F13004092C98BF50190E2B03F1A8
:1047F000010301EB0302E1D90020F0BC7047002067
:10480000704700BF582E002070B5174DD5F8A8216D
:1048100013791E3B012B064603D9104600214FF0A9
:1048200053FA002E09DD114C264414F8011BD5F86B
:10483000A8014FF049FAA642F7D195F8FF316BB9BC
:104840000B4AB5F80832D2F8682DC5F800220133BA
:104850000022A5F80832C5F8042270BDD5F8A801D9
:1048600000214FF031FAEBE7503F0020FC400020E0
:10487000601D002038B5084CB4F8825233F094FA29
:10488000854205DD054BB4F88222A3F8322238BDFB
:10489000BDE8384008F090BF503F002000000010F5
:1048A000036813F0400004D013F4057F14BF012007
:1048B000002070472DE9F043244D254C85B005F1CB
:1048C000280980460F461646C4F8C896C4F8C45650
:1048D000FEF726FC1F4BC4F8B836122284F898263F
:1048E00004F5D36142F6F82200234020C1E90223F7
:1048F0002CF048F8044610B3FFF7D2FF98F80020D8
:104900003F78034694F9040000961C1E14BF03214F
:104910000121002A0CBF07220622012F0CBF082309
:1049200000231A43CDE901124B460B4A40212BF0DC
:104930003FFFA5F526752CB9003818BF012005B03A
:10494000BDE8F083C5F80003F6E700BFE8410020AA
:10495000582E002039570208116602080348044AFD
:1049600000F2437100F24270A4E700BF582E00200D
:10497000400D03000348044A00F2437100F2427004
:1049800098E700BF582E0020A086010070B5C44CE7
:10499000D4F8046384B02EB13046FFF781FF0028BD
:1049A00040F06D8194F81003FBF780FD94F8083314
:1049B000834205461CD0002800F07E81C6B1B94B69
:1049C00096F9040093F84120B2FA82F252094FF4AA
:1049D000165100230225CDE9015200911A46042107
:1049E0002BF0E6FEC4F80C0310B1012384F8083361
:1049F00094F81103FBF75AFD94F8123383420546ED
:104A00001ED0002800F01881D4F81433C3B1A54A91
:104A100093F9040092F84820002A18BF08224FF4A6
:104A2000964100230325CDE9015200911A46082141
:104A30002BF0BEFEC4F8180310B1012384F8123322
:104A4000FBF766FED4F81C532DB12846FFF728FF6C
:104A5000002840F0FA8094F82803FBF727FD94F82B
:104A600020338342064631D0002800F02E818D4E3F
:104A700096F84B30012B00F03681022B0CBF8A4A8E
:104A80008A4AC4F824230DB32A7A002A00F0288128
:104A9000022A00F02C81012A40F03781824BC4F8B1
:104AA00024334FF4966395F9040000930025022106
:104AB000019102952B462A4610212BF079FEB06712
:104AC00020B1012384F8295384F8203394F82A0371
:104AD000FBF7ECFC94F82B338342054636D00028D4
:104AE00000F0A180D4F82C33D3B11A7A002A00F058
:104AF000F4806F4901EB8202D2F89C2193F9040003
:104B0000009200230321019102931A464FF4807111
:104B10002BF04EFEC4F8300310B1012384F82B3380
:104B2000604A644BB2F8701092F8725092F87300B9
:104B3000A3F80E1A92F8741092F8752083F8125A9E
:104B400083F8160A83F8171A83F8182A94F834039E
:104B5000FBF7ACFC94F835338342054627D058B3B5
:104B60004FF4FA70FEF76EF9D4F83833FBB11A68D7
:104B700002F41072B2F5107F19D093F904000321EA
:104B80004FF4E13200230825CDE9011500924FF4DE
:104B900000711A462BF00CFEC4F8400338B14149AD
:104BA00001220023486384F8352384F83C3394F8C9
:104BB00044536DB104B070BDD4F840032BF0DCFD5C
:104BC000C4F8405384F8355394F84453002DF1D180
:104BD000D4F84833002BEDD0032293F90400CDE93B
:104BE00001251A7A324B03EB82034FF40021D3F8EC
:104BF0009C3100932A462B462BF0DAFDC4F84C0377
:104C00000028D7D0274BC4F85453D3F8683D84F814
:104C1000585303F51C5310330122C4F8503384F861
:104C2000442304B070BDD4F830032BF0A5FDC4F8C4
:104C3000305384F82B5389E7D4F818032BF09CFDEC
:104C4000C4F8185384F81253FAE694F82033002B72
:104C50007FF43CAFD4F80033002B3FF437AF114A58
:104C600092F84B109367012948D002290CBF0E4BD4
:104C70000E4BC4F82433012384F8203326E794F83C
:104C80000833002B7FF4B4AED4F80033002B3FF48C
:104C9000AFAE0122C4F80C3384F80823A8E600BFA5
:104CA000503F0020601D0020F4090020000A002071
:104CB000448D060800000020D4F80C032BF05CFDA6
:104CC000C4F80C5384F8085392E6134DA86F2BF0E8
:104CD00053FDAE6784F82063F8E64FF461420DE7B8
:104CE0004FF49643DFE60D4AC4F82423CBE64BB9D4
:104CF0000A4BC4F824334FF41663D4E6074BC4F8C8
:104D00002433B8E74FF41663CDE6054B03EB82027C
:104D1000D2F89C31C7E600BF601D0020E8090020E2
:104D2000448D060808490138002310F8012F222A73
:104D300004D001330F2B01F8012FF6D1034A13449D
:104D4000002283F84E207047AD1D0020601D00201A
:104D500010B5084C82B00223C4F85C3301905CF0BB
:104D6000F9FF0199C2B2D4F84C0302B0BDE810407B
:104D70004EF088BF503F002070B5254C064604F128
:104D80004E005CF0E7FF94F84E502B2D38D0302DBC
:104D900027D0382D2ED01F49002301E011F8015FE4
:104DA0000C464DB30133102BF8D1324606F11005F5
:104DB000134612F8011B222926D0AA42F8D1002856
:104DC00020DDC0F101001918621C013301E08B42A3
:104DD00018D013F8014D12F8010D8442F7D00020CD
:104DE00070BD94F84F20A2F13101012903460DD97D
:104DF000362A0BD00138CEE7002BF0D04C1ED4E77A
:104E00000538C8E7012070BD013BD8E7981EC2E70E
:104E1000601D0020AE1D00202DE9F04F2DED028B0E
:104E200087B00E4600AF144620B10378303B012B0B
:104E300040F26781DFF820A3DFF82093DFEDC08A1E
:104E40009FEDC08A0AF5875808F110083378002BC7
:104E50003BD02CB1DAF8683D22689A4240F2778361
:104E6000DFF8F0B29BF86053002D40F073829BF89E
:104E70006323B54B03EB4203B3F8E0315BBB012383
:104E80008BF86333B14BDA6811061CD59A68920728
:104E900040F13C83BAF81422DAF800304FF4F361A1
:104EA00012FB01F289FB0201D217C2EB6112102042
:104EB000C7F813203021082238747974BA7438186E
:104EC000002598473570002CC0D11C37BD46BDEC7D
:104ED000028BBDE8F08F0132D2B2B3F58A6F8BF846
:104EE000632300F0608125D8B3F5806F00F0F8816E
:104EF00066D9B3F5866F00F0D9814AD9B3F5886FCA
:104F0000E1D19AF84530002BDDD0904ADAF8003034
:104F1000B2F93822C7F81320102240213A74042233
:104F20007974BA7407F11000002598473570002C89
:104F30008CD1CAE7B3F5006F00F012817ED9B3F5CA
:104F4000046F00F0E68059D9B3F5116F00F0DF81EE
:104F5000B3F5206FB7D17D4BD3F834329A06B2D572
:104F6000DBEDE77ADAF8003067EEA87A1021FCEE84
:104F7000E77A002517EE902AC7F813200A22397421
:104F80007D74BA74781898473570002C7FF45EAF42
:104F90009BE7B3F5826F00F0AC81B3F5846F92D1DB
:104FA0006A4AD36818068ED59368990740F18C82B7
:104FB000DBF8F833C7F8133010212022042330E047
:104FC000B3F5007F00F04F8153D9B3F5047F7FF430
:104FD0007AAF5E4BDB689A077FF575AF9AF846307B
:104FE000002B40F076829BF87233012B0CBFBBF88C
:104FF0008033BBF88233102202219CE1B3F5026FAB
:1050000061D1524BDA6815067FF55DAF9A6890075B
:1050100040F16F82DAF80432C7F8133010212022F1
:105020000823BB743974DAF800307A7478180025D4
:1050300098473570002C7FF409AF46E7B3F5E26F6F
:1050400000F0F48047D9B3F5E46F7FF43CAF9AF8F1
:105050004530002B7FF437AF3C4B93ED2E0A20EE0A
:10506000080A60F0F3FA10212022C7F81300072382
:10507000D7E7B3F5807F00F0BF80B3F5887F7FF47A
:1050800022AF324BD3F8343259077FF51CAF9AF870
:10509000FD2D2F4B002A18BF434693ED050A60F003
:1050A000D5FA10230122C7F813003B747B74BA743D
:1050B000DAF8003007F11000002598473570002C11
:1050C0007FF4C4AE01E7B3F5036F3FF4DBAE002C11
:1050D0007FF4BCAEF9E6B3F5C06F75D0B3F5E06F01
:1050E0007FF4F1AE9AF84550002D7FF4ECAE174BEB
:1050F00093ED2C0A20EE080A60F0A8FA102207238C
:10510000F2E001300621FBF7C7FB124B83F8600386
:1051100090E60E4ADAF80030B2F93C2202EB820245
:1051200052001020C7F813204021082238747974E7
:10513000BA74381898473570002C7FF487AEC4E6EF
:10514000B80C473E0000C842448D0608000000101D
:10515000382E0020503F0020601D00201F85EB519D
:10516000D549CB6818067FF5AEAE8B689B0740F13A
:10517000E981D30700F1D481DAF8FC2182EAE273F5
:10518000A3EBE27303EB5303A9FB0313DB08002A31
:10519000B8BF43F08043102100250822C7F8133020
:1051A00039747D7478E0C44BDA6812067FF58BAEF3
:1051B0009A68950740F1AF81BAF91632C7F81330F3
:1051C0001021502204232CE79AF84930002B40F09C
:1051D0003F8125F017F9002510220623C7F8130098
:1051E0003A747D74BB74B818DAF80030984735709B
:1051F000002C7FF42BAE68E6AF4BD3F834325D075A
:105200007FF561AE9AF8FD1DAC4ADAF8003000294E
:1052100018BF4246D2ED027AFCEEE77A102117EE73
:10522000902A0025C7F813200122A8E69AF84550D5
:10523000002D7FF448AEA04B93ED2D0A20EE080A16
:1052400060F004FA10230722C7F813003B747B7444
:10525000BA74DAF8003007F1100098473570002C66
:105260007FF4F4AD31E6944BDB681B057FF52BAE84
:105270009BF87033002B3FF426AEBAF9CE33904A38
:105280007D7482FB0312DB17C3EBA2031BB2102158
:105290000222C7F813303974DAF80030BA7478187B
:1052A00098473570002C7FF4D1AD0EE69AF8453062
:1052B000002B3FF408AE804ADAF80030B2F93A2207
:1052C000C7F81320102230213A7404227974BA747A
:1052D00007F1100098473570002C7FF4B7ADF4E566
:1052E000FBF790F810220423C7F813007D743A747A
:1052F00078E7714BDA6812067FF5E5AD9A68950795
:1053000040F1FF80FBF786FA10230422CBE66A4BBC
:10531000DB6899077FF5D7AD9BF864334BB19BF8F9
:105320007223012A0CBFBBF88023BBF88223B2FB97
:10533000F3F310220921C7F813303A74DAF8003079
:105340007A74B974B818002598473570002C7FF42A
:105350007DADBAE5DFF86CA107F108033B61DAF82F
:105360001C8007F10E037B61D8F80020DAF81430B6
:105370009A426C469BF8613300F0818007F1090284
:105380003A615A1C8BF8612303F00F030522D8F809
:1053900004903B7294461346D8F80010A9EB01091B
:1053A000D01D5FFA89F920F00700CC45ADEB000D68
:1053B00040F2D5804A46684663F0F6F9D8F80030E6
:1053C0004B44C8F800304A46694607F1100054F0D3
:1053D00011F8DAF81C20DAF81430D8F80000117A45
:1053E000C8F80400C21A4A40D2B28342C8F800305A
:1053F0008BF862230AD00133C8F8003013F8011C7F
:10540000984282EA0102F6D18BF862233B69591C6B
:1054100039611A70D7E90432D21A012A08DD002155
:105420005A1C3A611970D7E90432D21A012AF7DC02
:1054300007F10800FAF712FF002500231C37A546E4
:105440008BF860533370BD46BDEC028BBDE8F08F26
:10545000194AD26810057FF536AD9BF87023002AF3
:105460003FF431AD012B00F09180DBF88433C7F8B5
:1054700013301022002506233A747D74B2E6B8F981
:105480000C20591C03F00F0343F01003002AB8BF8F
:1054900043F0200307F109023A613B72D8E9003971
:1054A0000422A9EB03038BF8611307F10A017B7255
:1054B0003961134694466FE700000010382E002033
:1054C00067666666601D002013681B077FF570AD78
:1054D000F9E49BF86433002B3FF48DAD9BF8722305
:1054E000012A0CBFBBF88023BBF88223B2FBF3F385
:1054F00081E51B6819077FF58DAD002C7FF4A6AC04
:10550000E3E41B6818077FF5FDAEDCE41B681D07AC
:105510007FF5C0ACD7E41B6818077FF54DAED2E429
:10552000DAF8002282EAE273A3EBE27303EB53039F
:10553000A9FB0313DB08002AACBF43F0004343F090
:10554000404328E60B681D077FF513AEBBE400233C
:105550001C373370BD46BDEC028BBDE8F08F68464A
:10556000C7E9003263F020F9D8F800107A683B6888
:105570001144C8F8001007F110001A46694653F0AC
:1055800039FF07F10800FAF769FE56E7DAF8D03379
:105590006DE700BF2DE9F041DFF8208198F88931EF
:1055A000012B82B002D002B0BDE8F081D8F804002F
:1055B0000028F8D0D8F8683D3E4C3F4E0133002516
:1055C000019304F57F778DF803500AE01B2B84F8D4
:1055D000045448D00D2B5CD0012386F8193AD8F832
:1055E000040003685B689847002849D0002D47D124
:1055F000D8F804000368DB68984783B27E2B4BD051
:1056000096F8192A002AEAD194F80424002ADDD158
:105610007D2B4BD094F808242AB180F02003D8B217
:1056200084F80854034694F80324062A0BD8B4F8E7
:1056300006C4A11863440132A4F8063481F8FC03BF
:1056400084F80324CBE7B4F806241344C3F30722F9
:1056500052FA83F30122A4F80634FF2B08BF3D461B
:1056600086F8192ABBE7D8F8040003685B689847F6
:105670000028B1D101238DF8033086F8193AAEE73E
:10568000284601AA0DF10301FFF7C6FB02B0BDE8F1
:10569000F081A4F80654A2E701238DF8035084F8A2
:1056A000035486F8195A84F8043498E7012384F8DF
:1056B000083494E7503F002000000020601D0020C7
:1056C000054B93F889210AB1002070470222186027
:1056D00083F8892101207047601D0020F0B5224C1D
:1056E000224DC4F8C45685B0FDF71AFD1223204997
:1056F000204A84F8983642F6F82604F5D36300274A
:105700004020C3E90267C4F8B816C4F8BC262BF0E1
:1057100039F930B394F8433794F8421790F90400FC
:10572000154A022B14BF08230023002908BF43F0A9
:10573000010303244FF4E131CDE90143009100233B
:1057400040212BF035F8A5F20C45C5F83004014690
:1057500020B10A48FFF7B4FF85F83404081E18BFCB
:10576000012005B0F0BD00BF582E00205C43002092
:10577000F5670208CD7402086D6B02084D600208DF
:1057800010B50C4C94F889310BB1002010BD2020CD
:105790002BF0F8F8C4F88C0150B120212BF0E8F878
:1057A000054B84F88A010120236084F8890110BD2B
:1057B000012010BD601D0020850200082DE9F04188
:1057C000494B4A4F93F87630012BC6B066D097F814
:1057D0003A0497F83B64FE2865D0012E35460DD972
:1057E000BB1903F2444303E0013D012DCEB253D077
:1057F00013F8012DEEB2711E002AF5D0D7F840340F
:10580000B7F83C1497F83C84B7F83EC46C46C3F331
:1058100017231A1222721A14E371627297F8403435
:1058200020702A4661800DF10A003149A37166702B
:10583000A4F804C00A3562F0B7FF18F00103B7F806
:10584000381404EB050214D16155090A98465170C9
:105850000923434403331E4414FA86F614F8011B4B
:10586000D7F830034EF030FAA642F7D146B0BDE883
:10587000F081204B6155090A1D685868517099687C
:105880001B7B9373C2F80250C2F80600C2F80A10DC
:105890004FF00D080923DCE73546AFE7FE2397F804
:1058A0003B6487F83A34D7F84034B7F83E0497F8A9
:1058B00040540F496C46C3F3172363713246FE23ED
:1058C00060800DF1060023706670257162F06CFF38
:1058D000B31DB7F83824E2542344120A5A704FF02B
:1058E00000080523B5E700BF601D0020503F0020E1
:1058F000944300209E4400202DE9F04F0468DFB05F
:10590000D3001B19059001920391036002D34368F1
:1059100001334360019BC4F3C504002B00F0CD802C
:10592000059B2833049303E0019B002B00F0C58006
:10593000019BC4F14002DDE903109A4228BF1A46D8
:105940009B1A01930B46204413441444039362F0C2
:105950002BFF402CE8D1059A1EAE0EAB92F82B50CF
:1059600092F82A4092F8290092F828101D705C7075
:105970009870D97004339E4202F10402EED1059B67
:105980009A680692DA6807921A6908925A69099227
:105990009A690A92DA690B920DF1740A1A6A5B6AC3
:1059A0000C920D9352460DAB53F8041F42F8041F9E
:1059B0001DA99942F8D14EAF3246916B134652F869
:1059C000040F5C6A1D684FEAF14383EA714383EA7E
:1059D00091234FEAB0412C4481EAF011234481EA3B
:1059E000D0010B449742D363E7D1354B009306F1C6
:1059F000FC030293DDE90869DDE90657DDE90BECFC
:105A0000DDF834800A9C2F4B0BE0B1463E462F4612
:105A10001546009AE046F446A6461C4652F8043F56
:105A200000924FEAF4212CEA040081EAB41104EA5E
:105A30000E0281EA746142405AF8040F0A4487EA70
:105A4000060B4FEA7531024481EAB5010BEA050BFA
:105A500007EA060081EAB5518BEA00000844029982
:105A600042441A44514502EB09030244CDD1069940
:105A700011440A46079929440D46089939440F46AE
:105A8000099931440E460A9919440B9B23441C463C
:105A90000C9B734418460D9B634488461946059B2E
:105AA000C3E90740C3E90357C3E905689A6059622F
:105AB000019B0024002B7FF43BAF5FB0BDE8F08F6B
:105AC000508F0608982F8A42F0B5066893B0F70801
:105AD00004460D468023472200210DF10100C7F145
